:1000000009C016C015C015C013C012C011C010C061
:100010000FC00EC011241FBECFE9CDBF10E0A0E677
:10002000B0E001C01D92A436B107E1F798D0F0C04E
:10003000E7CF1F920F920FB60F9211248F938091EA
:1000400060008F5F80936000843639F48091610096
:100050008F5F8093610010926000809161008C330B
:1000600039F410926100809162008F5F809362008A
:1000700080916200853039F4809161008E3119F4ED
:1000800081E08093630082EA82BF8F910F900FBE60
:100090000F901F90189587B1836087B986B18768E4
:1000A00086B9A39A80E28A95F1F7089520E030E0BE
:1000B00040E0369A349BFECF349A84B195B164E621
:1000C00070E092D0260F371F4F5F443691F7C90179
:1000D000089517BA18BAB89A089583B7856083BF90
:1000E00082EA82BF89B7826089BF78940895C09AF6
:1000F00084EF91E020EF30E0F9013197F1F70197BB
:10010000D9F7C09884EF91E020EF30E0F901319702
:10011000F1F70197D9F70895EADFE9DFE8DF88EE24
:1001200093E020EF30E0F9013197F1F70197D9F72B
:10013000DEDF88EE93E020EF30E0F9013197F1F750
:100140000197D9F7D4DFD3DFD2DF88EE93E020EF39
:1001500030E0F9013197F1F70197D9F70895CF937E
:10016000DF9317BA18BAB89A96DFB7DF9FDFEC01B2
:100170009DDFFC01CE0164E670E036D0CB0165E086
:1001800070E020D09C01CE01821B930BE817F90789
:1001900030F0C9018C0F9D1F8E179F0768F41092D5
:1001A00060001092610010926200809163008130C3
:1001B00011F410926300EF01809163008130C1F669
:1001C000ABDFD6CF5527002480FF02C0060E571F95
:1001D000660F771F6115710521F096958795009739
:1001E00099F7952F802D0895AA1BBB1B51E107C0DD
:1001F000AA1FBB1FA617B70710F0A61BB70B881FB7
:10020000991F5A95A9F780959095BC01CD01089545
:04021000F894FFCF90
:00000001FF
